:100000000C9462000C948A000C948A000C948A0070
:100010000C948A000C948A000C948A000C948A0038
:100020000C948A000C948A000C948A000C948A0028
:100030000C948A000C948A000C948A000C948A0018
:100040000C9425030C948A000C9495030C946F0374
:100050000C948A000C948A000C948A000C948A00F8
:100060000C948A000C948A000000000024002700F1
:100070002A0000000000250028002B0000000000DE
:1000800023002600290004040404040404040202DA
:100090000202020203030303030301020408102007
:1000A0004080010204081020010204081020000012
:1000B0000008000201000003040700000000000027
:1000C0000000E60511241FBECFEFD8E0DEBFCDBF94
:1000D00011E0A0E0B1E0EAE7FCE002C005900D927B
:1000E000A43EB107D9F722E0A4EEB1E001C01D9211
:1000F000A939B207E1F710E0C2E6D0E004C02197C9
:10010000FE010E943506C136D107C9F70E94C70318
:100110000C943B060C940000833081F028F481306D
:1001200099F08230A9F008958730A9F08830C9F09D
:100130008430B1F4809180008F7D03C08091800075
:100140008F7780938000089584B58F7784BD08955C
:1001500084B58F7DFBCF8091B0008F778093B00006
:1001600008958091B0008F7DF9CFCF93DF93282F32
:1001700030E0F901E255FF4F8491F901E656FF4F57
:10018000D491F901EA57FF4FC491CC23A1F081111A
:100190000E948C00EC2FF0E0EE0FFF1FE458FF4FA1
:1001A000A591B491EC91ED2381E090E009F480E019
:1001B000DF91CF91089580E090E0FACF1F93CF9325
:1001C000DF93282F30E0F901E255FF4F8491F901C8
:1001D000E656FF4FD491F901EA57FF4FC491CC2363
:1001E000A9F0162F81110E948C00EC2FF0E0EE0F89
:1001F000FF1FEE58FF4FA591B4918FB7F894EC9183
:10020000111108C0D095DE23DC938FBFDF91CF9111
:100210001F910895DE2BF8CFCF93DF9390E0FC0180
:10022000E656FF4F24918A579F4FFC018491882303
:10023000D1F090E0880F991FFC01E859FF4FA5917C
:10024000B491FC01EE58FF4FC591D491623071F426
:100250009FB7F8943C91822F809583238C93E881FB
:100260002E2B28839FBFDF91CF9108958FB7F894ED
:10027000EC912E2B2C938FBFF6CFAF92BF92CF92E3
:10028000DF92EF92FF920F931F93CF93DF936C0156
:100290007B018B01040F151FEB015E01AE18BF0837
:1002A000C017D10759F06991D601ED91FC910190E9
:1002B000F081E02DC6010995892B79F7C501DF9101
:1002C000CF911F910F91FF90EF90DF90CF90BF9053
:1002D000AF900895FC01538D448D252F30E0842F7D
:1002E00090E0821B930B541710F0CF96089501975E
:1002F0000895FC01918D828D981761F0A28DAE0F4B
:10030000BF2FB11D5D968C91928D9F5F9F73928FD1
:1003100090E008958FEF9FEF0895FC01918D828DFD
:10032000981731F0828DE80FF11D858D90E00895CA
:100330008FEF9FEF0895FC01918D228D892F90E022
:10034000805C9F4F821B91098F73992708958CEFD2
:1003500091E00E949B0121E0892B09F420E0822F8B
:10036000089580E090E0892B29F00E94A701811177
:100370000C9400000895FC01A48DA80FB92FB11DA5
:10038000A35ABF4F2C91848D90E001968F739927CB
:10039000848FA689B7892C93A089B1898C918370A9
:1003A00080648C93938D848D981306C00288F389A2
:1003B000E02D80818F7D80830895EF92FF920F93CF
:1003C0001F93CF93DF93EC0181E0888F9B8D8C8D01
:1003D00098131AC0E889F989808185FF15C09FB7F5
:1003E000F894EE89FF896083E889F98980818370B8
:1003F000806480839FBF81E090E0DF91CF911F9167
:100400000F91FF90EF900895F62E0B8D10E00F5F87
:100410001F4F0F731127E02E8C8D8E110CC00FB65D
:1004200007FCFACFE889F989808185FFF5CFCE01F5
:100430000E94BB01F1CFEB8DEC0FFD2FF11DE35AB4
:10044000FF4FF0829FB7F8940B8FEA89FB89808178
:100450008062CFCFCF93DF93EC01888D8823B9F0F2
:10046000AA89BB89E889F9898C9185FD03C08081BF
:1004700086FD0DC00FB607FCF7CF8C9185FFF2CF3C
:10048000808185FFEDCFCE010E94BB01E9CFDF91D6
:10049000CF910895CF93DF93C0E2D1E08881229677
:1004A00060E00E94DE0081E0CC32D807B9F7DF912E
:1004B000CF910895EF92FF920F931F93CF93DF9305
:1004C0007C010E944A0204E011E0D0E0C0E0F801A3
:1004D00080810E5F1F4FB7010C2E02C07595679586
:1004E0000A94E2F761700E94DE002196C530D105C2
:1004F00071F7DF91CF911F910F91FF90EF900895C9
:10050000CF93C091F20161E06C2785E00E94DE008C
:100510006C2F86E0CF910C94DE00FC01019000204E
:10052000E9F73197AF01481B590BBC018CEF91E003
:100530000C943D01CF93DF930E948D02EC018CE27D
:1005400091E00E948D028C0F9D1FDF91CF91089545
:100550008F929F92AF92BF92CF92DF92EF92FF92D3
:100560000F931F93CF93DF93CDB7DEB7A1970FB64D
:10057000F894DEBF0FBECDBF6C01990FEE08FF08E7
:10058000F7FE41C06DE28CEF91E00E94DD018C012D
:1005900022273327A9012C193D094E095F0919A209
:1005A000CE0181967C019AE0892E912CA12CB12C50
:1005B000CA01B901A50194010E941306605DF7010B
:1005C00062937F01211531054105510589F790E0BE
:1005D00080E0309719F0CF010E948D02800F911FAB
:1005E000A1960FB6F894DEBF0FBECDBFDF91CF91BD
:1005F0001F910F91FF90EF90DF90CF90BF90AF9041
:100600009F908F900895A701960119A28E010F5D0A
:100610001F4F8AE0C82ED12CE12CF12CCA01B90160
:10062000A70196010E941306605DF80162938F0195
:10063000211531054105510589F790E080E030979B
:1006400079F2CF010E948D02CBCF1F920F920FB68D
:100650000F9211242F933F938F939F93AF93BF9348
:100660008091F8019091F901A091FA01B091FB01FC
:100670003091F70123E0230F2D3758F50196A11D86
:10068000B11D2093F7018093F8019093F901A09395
:10069000FA01B093FB018091F3019091F401A091D4
:1006A000F501B091F6010196A11DB11D8093F301F2
:1006B0009093F401A093F501B093F601BF91AF912F
:1006C0009F918F913F912F910F900FBE0F901F9090
:1006D000189526E8230F0296A11DB11DD2CF1F92B7
:1006E0000F920FB60F9211242F933F934F935F9366
:1006F0006F937F938F939F93AF93BF93EF93FF93EA
:100700008CEF91E00E94BB01FF91EF91BF91AF91FF
:100710009F918F917F916F915F914F913F912F9119
:100720000F900FBE0F901F9018951F920F920FB64B
:100730000F9211242F938F939F93EF93FF93E09148
:100740000C02F0910D028081E0911202F0911302EF
:1007500082FD1BC09081809115028F5F8F73209165
:100760001602821741F0E0911502F0E0E450FE4FCE
:10077000958F80931502FF91EF919F918F912F910B
:100780000F900FBE0F901F9018958081F4CF789432
:1007900084B5826084BD84B5816084BD85B5826086
:1007A00085BD85B5816085BD80916E008160809337
:1007B0006E001092810080918100826080938100A0
:1007C00080918100816080938100809180008160B0
:1007D000809380008091B10084608093B10080910B
:1007E000B00081608093B00080917A008460809333
:1007F0007A0080917A00826080937A0080917A00FA
:10080000816080937A0080917A00806880937A007A
:100810001092C100E0910C02F0910D0282E0808301
:10082000E0910802F09109021082E0910A02F09131
:100830000B028FEC808310921402E0911002F09171
:10084000110286E08083E0910E02F0910F02808118
:1008500080618083E0910E02F0910F0280818860B8
:100860008083E0910E02F0910F0280818068808386
:10087000E0910E02F0910F0280818F7D808362E013
:1008800082E00E940C0162E083E00E940C0162E0C1
:1008900084E00E940C0161E085E00E940C0161E0AF
:1008A00086E00E940C01C0E2D1E09CE2E92E91E0DA
:1008B000F92E1881229661E0812F0E940C0160E0E0
:1008C000812F0E94DE00EC16FD0699F70E9480023F
:1008D0008FE291E00E949A0289E491E00E949A02DC
:1008E000AA24A39480E0E82E80E0F82EBB24B394E1
:1008F00082E00E94B500209102013091030182172D
:100900009307B9F02FB7F8944091F8015091F9018D
:100910006091FA017091FB012FBF4093E901509360
:10092000EA016093EB017093EC01909303018093D3
:1009300002012FB7F8944091F8015091F9016091AC
:10094000FA017091FB012FBF0091E9011091EA01BA
:100950002091EB013091EC01401B510B620B730BAA
:10096000433351056105710518F120910001309163
:10097000010182179307E1F0909301018093000138
:10098000892B09F0DFC02FB7F8948091F80190917E
:10099000F901A091FA01B091FB012FBF8093E5010D
:1009A0009093E601A093E701B093E8011092E4016F
:1009B0008091000190910101892BC1F58091E401A2
:1009C000811134C02FB7F8948091F8019091F9010A
:1009D000A091FA01B091FB012FBF4091E501509128
:1009E000E6016091E7017091E801841B950BA60B6D
:1009F000B70B88389341A105B105C0F0C091F20151
:100A0000CA25C093F2010E944A020E948002CC23B0
:100A100009F4C6C01092EF018EE591E00E949A029F
:100A20008BE791E00E949A02B092E4010091F201FA
:100A3000002309F4C4C083E00E94B5004C01D1E05A
:100A4000892B09F0D0E084E00E94B500C1E0009756
:100A500009F0C0E0CC24C3948114910409F4C12CA2
:100A6000892809F0A8C011E0892B09F410E0DC2ED8
:100A70006D2F87E00E94DE006C2F88E00E94DE0070
:100A80006C2D89E00E94DE006D2D8AE00E94DE0060
:100A9000602F8BE00E94DE00612F8CE00E94DE0060
:100AA0008091EF01882341F08091EE01D81304C0BA
:100AB0008091ED01C817D1F189EB91E00E948D0280
:100AC0008D2F90E00E94A80281EB91E00E948D02A0
:100AD0008C2F90E00E94A80285EB91E00E948D028D
:100AE0008C2D90E00E94A8028CEB91E00E948D0278
:100AF0008D2D90E00E94A80285EC91E00E948D026D
:100B0000802F90E00E94A8028EEC91E00E948D025E
:100B1000812F90E00E94A8028CE291E00E948D0259
:100B2000D093EE01C093ED01B092EF01E114F10416
:100B300009F4DECE0E94A701882309F4D9CE0E94D1
:100B40000000D6CE8091E401811170CF8091F20136
:100B500081116CCF8091F0019091F101019680326A
:100B60009105CCF49093F1018093F0018091F00114
:100B70009091F1010E945A0284E591E00E948D0259
:100B80008091F0019091F1010E94A8028CE291E025
:100B90000E948D020DCF1092F1011092F001E6CF6C
:100BA0008FE291E00E949A028091F0019091F10110
:100BB0000E945A0239CF0C2F1C2FD12C59CF809173
:100BC000F0019091F1010E945A02B0CFECEFF1E0F8
:100BD0001382128288EE93E0A0E0B0E084839583D4
:100BE000A683B78382E191E09183808385EC90E0D6
:100BF0009587848784EC90E09787868780EC90E0E7
:100C0000918B808B81EC90E0938B828B82EC90E0D7
:100C1000958B848B86EC90E0978B868B118E128E51
:100C2000138E148E0895A1E21A2EAA1BBB1BFD0180
:100C30000DC0AA1FBB1FEE1FFF1FA217B307E407BB
:100C4000F50720F0A21BB30BE40BF50B661F771F13
:100C5000881F991F1A9469F76095709580959095F3
:100C60009B01AC01BD01CF010895EE0FFF1F059060
:0A0C7000F491E02D0994F894FFCFF1
:100C7A00010001000C000B000A0009000800000036
:100C8A000000DD013D016A012A029B0179018D0103
:100C9A000C000B000A000900080007000D0A0050AA
:100CAA00726F6A65637420413A2042696E61727993
:100CBA0020436F756E74657200436F756E7465724A
:100CCA003A203000436F756E7465723A2000507294
:100CDA006F6A65637420423A204C6F676963616C7E
:100CEA00204F70657261746F7273004C6566742070
:100CFA00746F2072696768743A20412C20422C2054
:100D0A0021412C20412626422C20417C7C422C2049
:100D1A00284126262142297C7C282141262642294F
:100D2A000020423D00207C2021413D00207C2041C2
:100D3A002626423D00207C20417C7C423D00207CCE
:100D4A0020284126262142297C7C28214126264228
:040D5A00293D00002F
:00000001FF
